:020000040000fa
:080000000002040000000000f2
:020000040000fa
:10040000cfdd20000e7f24000e01880000000000d8
:100410000c000700a00422000100200011000700ca
:10042000000020000000e000020032000000020096
:10043000000000004c1d0200000000000040da0037
:100440000000fe004440a900000020000000e00081
:100450000300320000002000a00188004440a800f2
:100460000000060091018800800078000000eb0089
:1004700015003700e280400032a0b4009101ba00bc
:10048000e280400032a0b4009102ba00e280400055
:1004900032a0b4000002eb00472bde00f507b200eb
:1004a000602ce10004003a000059eb008301e900f0
:1004b000fdff3e00040037006128e100010032002a
:1004c0000082eb00040007001101ba000200e00006
:1004d000e8ff3a00000006003159ba008301e90044
:1004e0000c0032002159ba008301e90008003200f3
:1004f0000400e00003003a00e280400032a0b400b3
:10050000f5ff370011d9ba008301e900faff3a007c
:100510008100e800e180400032a0b4000000060045
:10052000b21c040000000000be1c0400000000001b
:10053000a41c040000000000301d040000000000a6
:10054000361d0400000000005a03040000000000f3
:100550005407040000000000e40c04000000000048
:100560001008040000000000be1804000000000095
:020000040000fa
:020000040005f5
:0457f400003e000073
:020000040000fa
:020000040005f5
:0457f800ee3300008c
:020000040000fa
:020000040005f5
:0457fc00609e0000ab
:020000040000fa
:10000800be1d0000a81d0000661d00007c1d00002c
:10001800921d0000be1d0000be1d0000be1d000098
:10002800be1d0000be1d0000be1d0000761c0000a5
:10003800be1d0000be1d0000be1d0000be1d00004c
:10004800be1d0000be1d0000be1d0000be1d00003c
:10005800be1d0000be1d0000be1d0000be1d00002c
:10006800be1d0000be1d0000be1d0000be1d00001c
:1000780010210000be1d0000be1d0000be1d0000b6
:10008800be1d0000be1d0000be1d0000be1d0000fc
:10009800be1d0000be1d0000be1d0000be1d0000ec
:1000a800be1d0000be1d0000be1d0000be1d0000dc
:1000b800be1d0000be1d0000be1d0000be1d0000cc
:1000c800be1d0000be1d0000be1d0000be1d0000bc
:1000d800be1d0000be1d0000be1d0000be1d0000ac
:1000e800be1d0000be1d0000be1d0000be1d00009c
:1000f800be1d0000be1d0000be1d0000be1d00008c
:10010800be1d0000be1d0000be1d0000be1d00007b
:10011800be1d0000be1d0000be1d0000be1d00006b
:10012800be1d0000be1d0000be1d0000be1d00005b
:10013800be1d0000be1d0000be1d0000be1d00004b
:10014800be1d0000be1d0000be1d0000be1d00003b
:10015800be1d0000be1d0000be1d0000be1d00002b
:10016800be1d0000be1d0000be1d0000be1d00001b
:10017800be1d0000be1d0000be1d0000be1d00000b
:10018800be1d0000be1d0000be1d0000be1d0000fb
:10019800be1d0000be1d0000be1d0000be1d0000eb
:1001a800be1d0000be1d0000be1d0000be1d0000db
:1001b800be1d0000be1d0000be1d0000be1d0000cb
:1001c800be1d0000be1d0000be1d0000be1d0000bb
:1001d800be1d0000be1d0000be1d0000be1d0000ab
:1001e800be1d0000be1d0000be1d0000be1d00009b
:0801f800be1d0000be1d000049
:020000040000fa
:10020800be1d0000a81d0000661d00007c1d00002a
:10021800921d0000be1d0000be1d0000be1d000096
:10022800be1d0000be1d0000be1d0000761c0000a3
:10023800be1d0000be1d0000be1d0000be1d00004a
:10024800be1d0000be1d0000be1d0000be1d00003a
:10025800be1d0000be1d0000be1d0000be1d00002a
:10026800be1d0000be1d0000be1d0000be1d00001a
:1002780010210000be1d0000be1d0000be1d0000b4
:10028800be1d0000be1d0000be1d0000be1d0000fa
:10029800be1d0000be1d0000be1d0000be1d0000ea
:1002a800be1d0000be1d0000be1d0000be1d0000da
:1002b800be1d0000be1d0000be1d0000be1d0000ca
:1002c800be1d0000be1d0000be1d0000be1d0000ba
:1002d800be1d0000be1d0000be1d0000be1d0000aa
:1002e800be1d0000be1d0000be1d0000be1d00009a
:1002f800be1d0000be1d0000be1d0000be1d00008a
:10030800be1d0000be1d0000be1d0000be1d000079
:10031800be1d0000be1d0000be1d0000be1d000069
:10032800be1d0000be1d0000be1d0000be1d000059
:10033800be1d0000be1d0000be1d0000be1d000049
:10034800be1d0000be1d0000be1d0000be1d000039
:10035800be1d0000be1d0000be1d0000be1d000029
:10036800be1d0000be1d0000be1d0000be1d000019
:10037800be1d0000be1d0000be1d0000be1d000009
:10038800be1d0000be1d0000be1d0000be1d0000f9
:10039800be1d0000be1d0000be1d0000be1d0000e9
:1003a800be1d0000be1d0000be1d0000be1d0000d9
:1003b800be1d0000be1d0000be1d0000be1d0000c9
:1003c800be1d0000be1d0000be1d0000be1d0000b9
:1003d800be1d0000be1d0000be1d0000be1d0000a9
:1003e800be1d0000be1d0000be1d0000be1d000099
:0803f800be1d0000be1d000047
:020000040000fa
:100570000800fa0010002000000f78000000eb00d7
:10058000200798000000eb00100798000d003700ce
:10059000706a80001e0060000000e000030032006e
:1005a0001e00900020079800090037001e00780008
:1005b00000004000000f78001e0090000000e800de
:1005c000100798001e009000e90f5000f0ff340063
:1005d0002e0090004200dd008080e800a0d12000c5
:1005e00000804000100078000000e00009003200a8
:1005f0002e0090004200dd008080e800a0d12000a5
:1006000000804000100078000080e900300798006a
:10061000020037000000eb00300798003e00900019
:10062000606a88000080fa00000006000200fa00fc
:10063000000f78001e00780030189000e70f50007f
:1006400002003a001e007800a50807001e0078008e
:1006500030189000e70f5000040032001e007800b0
:1006600030189000e60f500002003a001e0078009b
:10067000b80807000080fa00000006000200fa0037
:10068000000f78001e007800201890000000e000a5
:10069000020032000040da00000000001e00780076
:1006a000740807001e007800860407000080fa0026
:1006b000000006000600fa001007980021079800c5
:1006c0002e009000000f78008080eb001e00780064
:1006d000020007000080fa00000006000400fa0093
:1006e000000f7800110798009e0090001e0078000f
:1006f0000e0407001e007800060007000000e0005e
:1007000002003a001e007800470307000080fa004c
:10071000000006000400fa00000f78001e007800b8
:10072000201890004200de00610060001007980071
:100730001e0090000000e0000200320010002000c7
:10074000100798001e0090000080fa0000000600cc
:100750001a00fa0050079800610798007207980085
:10076000030f9800140f9800250f9800360f98007b
:100770000080eb00400798007e009000e90f5000d9
:1007800008003a003e0890000000d10061006000bf
:100790000000e00003003a00b0ff2f00400f980077
:1007a000860037007e0090000000e0001400350055
:1007b0007e009000e90f500011003c009e08900060
:1007c00030022000808f50000d0034006e00900039
:1007d0000000e0000a0032005e0090000000e0002f
:1007e000070032000e0890000000e0000400320014
:1007f0005e009000820007000000e000030032006d
:10080000b1ff2f00410f98006c0037000000eb0093
:1008100030079800890b0700200798002e009000f1
:10082000e10f5000060032002e0090000000e000b2
:1008300003003200d0ff2f00400f98005f00370008
:100840002e009000e10f500002003a00a40e0700b5
:10085000400798005e009000ee0090004110980064
:100860005e009000ae089000511098009e08900025
:100870000e089000cc0c0700800078005e0090000d
:10088000211098005e0090009e08900031109800a2
:100890005e009000fe00900061109800de00900065
:1008a0000000eb00a01898005e01900090f62c006c
:1008b000b17a24000019980011199800de00900008
:1008c0000000eb00b0189800de0090000000eb0084
:1008d000c0189800de0090000000eb00b0089800ff
:1008e0000000eb00100798000e089000000f780041
:1008f000070037009e007800d0ee2f0080087800b7
:100900001e8fe8001e0090000000e800100798000d
:100910009e0090001e089000808f5000f5ff35006b
:100920005e0090000080e8003f0d07005e00900030
:10093000660040005e019000a13520009d0907007f
:100940005e009000270007005e0090001e00070078
:100950005e009000db0307005e009000f80040009e
:1009600020d420005f0d0700306a80000000e800fe
:10097000306a88003e089000610060000004e000da
:10098000020032005e0090000f0407002e0090006d
:10099000e10f500007003a004e009000e10f4000c8
:1009a00002003a000040da00000000004e00900013
:1009b000510e0700be009000410f98004e089000b5
:1009c0000080fa00000006000200fa00000f780024
:1009d000010220001e804000130d07000080fa0075
:1009e000000006000200fa00000f78009e00780068
:1009f0007c8040000c0d07000080fa00000006001b
:100a00000400fa00000f78001e0078000019900022
:100a1000901990000000eb001007980090f62c0051
:100a2000b17a2400800f5100818f590002003a00f2
:100a300010002000100798001e0090000080fa00af
:100a4000000006000600fa00200798002e00900023
:100a500067000700100798001e0090000000e000eb
:100a600025003a00570007000000e00003003a00ac
:100a7000d0ff2f00100798001f0037000080eb0008
:100a8000000f7800160e0700000f78002e0090006f
:100a900020ff07000000e00004003a002e00900054
:100aa000390007000000e00003003200c0ff2f0003
:100ab00010079800080037002e009000240007005f
:100ac0000000e000020032002e00900086020700c5
:100ad0002e009000510307000080eb009e0f1000d5
:100ae00002003a000040da00000000001e0078001a
:100af000010e0700030007001e0090000080fa00ae
:100b0000000006000000fa00050007000000e000f9
:100b100001003200bd0d07000080fa000000060051
:100b20000200fa00516a8000606a80000001eb0058
:100b3000020f7800808f5000020032001000200069
:100b4000000f78001e0078000080fa000000060008
:100b50000400fa00000f78001e00780020189000b2
:100b600061006000100798001e0090000000e00087
:100b70000200320010002000100798001e009000b4
:100b80000080fa00000006000400fa00000f780060
:100b90001e007800201890004300de006100600015
:100ba000100798001e0090000000e00002003200d4
:100bb00010002000100798001e0090000080fa002e
:100bc000000006000200fa009c0a07008000eb000b
:100bd000010f7800e10f500002003a0010002000e1
:100be000000f78001e0078000080fa000000060068
:100bf0000400fa00100798000000eb00000f7800d6
:100c00001e0090000000e00003003a00b0ff2f003b
:100c1000000f7800060037001e00900078ff0700e4
:100c20000000e00002003a0090ff2f00000f780063
:100c30001e0078000080fa00000006000600fa009e
:100c4000200798002e009000e9ff07001007980089
:100c50001e0090000000e00021003a00d9ff0700cc
:100c60000000e00003003a00d0ff2f0010079800ba
:100c70001b0037000080eb00000f7800980d070084
:100c8000000f78002e009000a2fe07000000e00098
:100c900003003a00c0ff2f0010079800080037003b
:100ca0002e009000ef0207002e0090000f000700ba
:100cb0000000e00002003a002e009000da01070078
:100cc0000080eb009e0f100002003a000040da00a6
:100cd000000000001e007800870d070089ff070054
:100ce0001e0090000080fa00000006000400fa00d8
:100cf000000f78001e007800201890000000d1003e
:100d000061006000100798001e0090000000e000e5
:100d10000200320010002000100798001e00900012
:100d20000080fa00000006000800fa002007980082
:100d3000310798002e009000be009000e00f500098
:100d4000e08f580003003a000080eb001007980085
:100d50001a0037009bff07000000e00003003a0084
:100d6000d0ff2f0010079800140037000080eb0020
:100d7000000f78005a0d0700000f78002e01900038
:100d8000be019000110020000000eb000e000700e3
:100d90000080eb009e0f100002003a000040da00d5
:100da000000000001e007800530d070055ff0700eb
:100db000506a8000c0189000110798001e00900033
:100dc0000080fa00000006000800fa00000f78001a
:100dd000110798002207980033079800506a800096
:100de000c1010700506a80002e029000be029000f0
:100df0001e0190009e007800110207000080fa009a
:100e0000000006000200fa00000f78004175200083
:100e10001e007800020007000080fa0000000600b3
:100e20000800fa0020079800310798002e00900073
:100e30006fff0700100798001e0090000000e00000
:100e400016003a005fff07000000e00003003a00d0
:100e5000d0ff2f0010079800100037000080eb0033
:100e6000000f78001e0d0700000f7800be009000f4
:100e70002e00900001000100100798000080eb0098
:100e80009e0f100002003a000040da00000000004f
:100e90001e007800180d07001aff07001e009000c2
:100ea0000080fa00000006000400fa001007980015
:100eb0000000eb00000f78001e0090008bff070081
:100ec0000000e000080032001e0090003018900082
:100ed000e10f500004003a008000eb001e0090007b
:100ee000fefd070002003700c0ff2f00000f780052
:100ef0001e0078000080fa00000006000200fa00e0
:100f0000000f7800417520001e00780002000700e5
:100f10000080fa00000006000800fa002007980090
:100f2000310798002e00900031ff0700100798004d
:100f30001e0090000000e00016003a0018000700b4
:100f40000000e00003003a00d0ff2f0010079800d7
:100f5000100037000080eb00000f7800e00c070065
:100f6000000f7800be0090002e00900001000100ec
:100f7000100798000080eb009e0f100002003a005e
:100f80000040da00000000001e007800da0c0700c4
:100f9000dcfe07001e0090000080fa000000060042
:100fa0000200fa00a50907008000eb00010f78009d
:100fb000e20f500002003a0010002000000f7800fd
:100fc0001e0078000080fa00000006000200fa000f
:100fd000000f780041ce20001e00780090ff07002f
:100fe0000080fa00000006000200fa00000f7800fe
:100ff00041ce20001e007800c7ff07000080fa00e5
:10100000000006000200fa00000f780001812000b5
:101010001e00780082ff07000080fa000000060032
:101020000400fa00100798000000eb00000f7800a1
:101030001e0090002dff07000000e00004003200b9
:1010400071ff2f001e009000a4fd07000200370072
:10105000c0ff2f00000f78001e0078000080fa000b
:10106000000006000200fa00000f78000181200055
:101070001e007800a8ff07000080fa0000000600ac
:101080000600fa0020079800cefe07000000e000ee
:10109000110032000080eb00000f7800900c070078
:1010a000000f7800506a8000100798001e00900022
:1010b0000d0107001e00900070fd07002e0090003b
:1010c000610060000004e000020032001e00900099
:1010d00003000700470c07000080fa00000006002c
:1010e0000400fa00100798000000eb00000f7800e1
:1010f0001e009000a4fe07000000e00003003a007c
:10110000c0ff2f00000f78000a0037001e0090007b
:1011100078004000b90b0700306a80000000e90049
:10112000306a88001e0190006000b8000019980025
:10113000111998001e0078000080fa0000000600d7
:101140000600fa00200798002e009000a8fe070075
:10115000100798001e0090000000e00036003a00e2
:1011600098fe07000000e00003003a00d0ff2f00c7
:1011700010079800300037000080eb00000f780067
:10118000570c0700000f78002e0090007efe07002d
:101190000000e00003003200c0ff2f00100798009d
:1011a0001d003700516a80002e009000808f500093
:1011b00003003a00d0ff2f001007980016003700f8
:1011c0002e00900062fe07000000e00003003200e5
:1011d0002e009000c4000700070037002e0090008a
:1011e000c2fe07000000e000030032008000eb00b8
:1011f0002e0090004d0107002e00900045fd0700d5
:101200000000e000020032002e009000950107006f
:101210002e00900019fd07000080eb009e0f1000cb
:1012200002003a000040da00000000001e007800d2
:10123000310c070033fe07001e0090000080fa000a
:10124000000006000600fa00200798002e0090001b
:1012500067fe0700100798001e0090000000e000e5
:1012600014003a0057fe07000000e00003003a00b7
:10127000d0ff2f00100798000e0037000080eb0011
:10128000000f7800160c0700000f78002e00900069
:1012900093ff0700100798000080eb009e0f1000de
:1012a00002003a000040da00000000001e00780052
:1012b000110c07001e0090000080fa0000000600dc
:1012c0000800fa0020079800310798002e009000cf
:1012d00047fe0700100798001e0090000000e00085
:1012e00015003a0037fe07000000e00003003a0056
:1012f000d0ff2f00100798000f0037000080eb0090
:10130000000f7800f60b0700000f78002e00900009
:10131000a01890003e009000010878000080eb00cb
:101320009e0f100002003a000040da0000000000aa
:101330001e007800f00b07001e0090000080fa00ed
:10134000000006000800fa00200798003107980006
:101350002e00900026fe0700100798001e00900047
:101360000000e0002d003a003e0090000000e00088
:10137000030035003e009000e80f500003003400e9
:10138000b0ff2f0010079800240037000dfe070063
:101390000000e00003003a00d0ff2f001007980083
:1013a0001e0037000080eb00000f7800cc0b070018
:1013b000000f78003e0090000000e00003003a00bb
:1013c0002e009000e0109000310798000000eb0024
:1013d000100798002e009000ebfd07000000e000d1
:1013e00003003200c0ff2f001007980003003700f1
:1013f000be0090002e009000a50107000080eb00c9
:101400009e0f100002003a000040da0000000000c9
:101410001e007800b80b0700bafd07001e00900000
:101420000080fa00000006000400fa00100798008f
:101430001e009000201890000000e0000200320022
:101440000040da00000000001e009000f010900044
:10145000010f78001e009000201890008000780096
:101460000100a0001e009000211898001e009000ae
:101470000080e8009e00780008000700606a800095
:10148000701090009e0f5000020034001e0090006b
:10149000606a88000080fa00000006000400fa007c
:1014a000000f7800110798001e0090004200dd0038
:1014b00080007800a0d12000008040009e007800cd
:1014c000880a0700110020001e0090000008dd00bf
:1014d00080007800706a800000807000706a880068
:1014e0000080fa00000006000600fa0010079800cd
:1014f0001e00900020189000e10f50000200320002
:101500000040da00000000009e00900080d520001e
:10151000808f500002003a000040da000000000016
:101520001e009000f0109000010f78001e00900047
:10153000a0189000e0ff2f00808060001e00900047
:10154000211898001e0090000080e8009e0078009e
:10155000220007000000e0000200320004fc070047
:1015600019003700616a80001e009000808f5000d3
:1015700015003a001e0078004200dd008080e8007f
:10158000a0d1200000804000100078000000e000a2
:10159000090032001e0078004200dd008080e80073
:1015a000a0d1200000804000100078000080e900f9
:1015b00020079800020037000000eb002007980089
:1015c000ae009000616a88001e0090000080e80074
:1015d000150a07000080fa00000006000600fa0065
:1015e00010079800210798001e009000830a07004a
:1015f0002e0090004200dd0080007800a0d1200085
:1016000000804000130a0700000f78001e00e00071
:1016100008003200110020002e0090000008dd00bc
:101620000080ea0080007800706a8000008060001e
:10163000706a88001e0078000080fa000000060032
:101640000a00fa00000f780011079800220798009e
:1016500034079800450798001e007800a0189000f5
:10166000b0ff2f00008060000000e00003003200a7
:101670000040da00000000000f0037003e0090003c
:10168000ce009000e00f5000e08f580003003a00b9
:101690000040da0000000000070037009e007800dc
:1016a00066804000710607000000e0000200320082
:1016b0000040da00000000001e00780020189000b2
:1016c000800078000110a0001e007800211898000a
:1016d0001e007800ae009000311898009e0078003f
:1016e000212090000010a000a02098001e00900073
:1016f0000000e000060032009e80e8001e0090001e
:10170000f80907001e0078009e009000310898003c
:101710009e007800668040003e019000ce0190005f
:10172000cc0507000080fa00000006000800fa005f
:10173000000f7800110798001e007800a018900094
:1017400090ff2f00008060000000e00006003a00db
:101750001e007800201890000000d1006100600099
:101760000000e00002003a000040da000000000043
:101770001e80e800b7090700300798001e007800b7
:10178000300890008000eb00210798000000e00086
:1017900002003a001000200020079800be009000d0
:1017a0002e009000808f5000020032000040da00ce
:1017b000000000001e80e800100a07001e80e800fc
:1017c000990907001e00780098fb07009e0078002a
:1017d0000000eb00b00898001e0078009e0090000a
:1017e000411898009e00780066804000de050700e2
:1017f0001e007800a0189000d0ff2f0080806000ad
:101800001e007800211898009e0078000000eb0070
:10181000b01898000080fa00000006000200fa00ec
:10182000000f78001e007800a0189000d0ff2f0055
:10183000008060000000e000020032000040da009a
:10184000000000001e007800201890008000780042
:101850000120a0001e007800211898000080fa00e6
:10186000000006000200fa00000f78001e00780059
:10187000a018900090ff2f00008060000000e000a2
:1018800006003a001e007800201890004200de009a
:10189000610060000000e00002003a000040da0051
:1018a000000000001e007800a0189000b0ff2f007c
:1018b000808060001e007800211898000080fa00e7
:1018c000000006000200fa00000f78001e007800f9
:1018d000201890000000e000030032000040da0011
:1018e000000000000f0037009e0078007c80400060
:1018f000580907000000e00003003a000040da0049
:101900000000000007003700010220001e80400098
:10191000500907000000e00002003a000040da0031
:10192000000000001e007800e01090001e0078000b
:10193000711098001e007800201890008000780038
:101940000130a0001e007800211898009e00780049
:101950000000eb00d01898000080fa00000006009c
:101960000200fa00000f78001e0078002018900096
:10197000e80f5000020032000040da0000000000d2
:101980001e007800501190001e007800a0109000fa
:101990001e00780040109000890807008000780041
:1019a0001e007800010878001e007800a018900042
:1019b00070ff2f00808060001e00780021189800c2
:1019c0000080fa00000006000400fa0010079800ea
:1019d0000000eb00000f78001e0090006afc07007a
:1019e0000000e000050032001e009000dcff070050
:1019f0001e0090008cfe070002003700c0ff2f0081
:101a0000000f78001e0078000080fa000000060039
:101a10000e00fa002007980031079800420798004e
:101a200053079800640798000000eb001007980027
:101a30002e009000070907000000e00011003a00a6
:101a40002e009000100090000080e900000f780048
:101a50004e0090000000e00005003200ce01900032
:101a60006e019000de0090001e007800030001006f
:101a7000be0090001e00780018fb07001000200038
:101a8000100798001e0090000080fa000000060079
:101a90000400fa00000f7800110798001e0078007b
:101aa0002bfc07000000e000040032009e009000c4
:101ab0001e00780006000700030037001e007800b3
:101ac0009e009000711098000080fa00000006004f
:101ad0000400fa00000f7800110798001e0078003b
:101ae0001bfc07000000e00002003a000040da00a2
:101af000000000001e007800f01090001e80e8003a
:101b0000b6fe07001e0078009e009000711098003d
:101b10001e80e8009e00900060fe070094fa070017
:101b20000080fa00000006000800fa002007980074
:101b3000310798000000eb00100798002e0090007d
:101b40007008900064005000000f78000a00370011
:101b50003e0090009e0f100003003a00100020008d
:101b6000100798000a0037001e007800300090002f
:101b700064005000000f78009e00780064804000f0
:101b8000ae009000fc804000810f5000f0ff3a0052
:101b90001e0090000080fa00000006000600fa0017
:101ba000200798002e009000e01090001107980088
:101bb0002e0090007008900064005000000f780024
:101bc000080037009e0090001e00780015000700f6
:101bd000100798001e00780030009000640050004c
:101be000000f78009e00780064804000ae009000f6
:101bf000fc804000810f5000f2ff3a002e00900060
:101c0000f01090001e009000808f50000300320002
:101c10009e0090002e0090009dff07000080fa00bb
:101c2000000006000800fa0010079800210798003d
:101c30002e009000000f78001e00900060009000c1
:101c400030079800be009000e18f50000400320081
:101c50003e009000e20f5000090032000d003700f6
:101c60001e009000000890009e0f50000b003d00e9
:101c70001e00900080089000010f780007003700d8
:101c80009e0078001e00900007000700000f7800fb
:101c9000020037000040da00000000001e0078005b
:101ca0000080fa00000006000800fa0020079800f3
:101cb000310798003e009000100798002e00900019
:101cc000100090000080e900000f78000c00370041
:101cd0001e007800f01090001e009000808f5000d1
:101ce00003003d001e007800f010900011079800de
:101cf0001e007800200090000080e900000f7800ae
:101d00009e80e8002e009000808f5000f0ff3a0087
:101d10001e0090000080fa00000006000800fa0093
:101d200020079800310798002e009000f0009000e6
:101d3000110798001e00900030189000e70f500027
:101d4000060032001e00900030189000e60f500090
:101d5000020032000040da00000000001e00900087
:101d600030089000000f78001e0090000102200053
:101d7000808040003e0090000002b000590807003b
:101d80001e007800e80040002e009000680040002f
:101d9000420807009e0078003e00900062ff0700a6
:101da0000000e00003003a009e0078002107980040
:101db000ddff37000080fa00000006000800fa008e
:101dc00020079800310798002e009000d000900066
:101dd000110798001e00900090009000010f7800fd
:101de000090037001e009000840807001e009000c4
:101df0000d0807001e007800100798001e009000d4
:101e000090009000010f78002e009000e800400044
:101e10001e009000808f5000f2ff3a003e009000bc
:101e200090109000110798001e0090009000900004
:101e3000010f7800090037001e0090006f080700ae
:101e40001e009000f80707001e0078001007980099
:101e50001e00900090009000010f78003e0090005e
:101e600001022000808040001e009000808f500002
:101e7000f1ff3a000080fa00000006000800fa00b6
:101e800020079800310798002e009000f000900085
:101e9000110798003e009000200007000000e000bd
:101ea0001c0032001e00900030189000e70f500018
:101eb000040032001e00900030189000e60f500021
:101ec00014003a001e00900030089000000f7800c7
:101ed0009e0078003e00900013ff07000000e00025
:101ee000090032003e00900030089000be009000d3
:101ef0008aff07003e019000ae0090001000200015
:101f000041060700030037001e00780020079800f4
:101f1000ddff37000080fa00000006000400fa0030
:101f2000000f78001e007800201890000000d100fb
:101f300061006000100798001e0090000000e000a3
:101f40000200320010002000100798001e009000d0
:101f50000080fa00000006000400fa00000f78007c
:101f6000110798009e00780068804000b9070700bc
:101f70000000e0000e003a001e0090000002b000d9
:101f8000b40707000000e000020032000040da0061
:101f9000000000001e0190009e0078000000eb0091
:101fa000190607009e0090001e00780083ff0700be
:101fb0000080fa00000006000400fa0010079800f4
:101fc0009e0090000000eb00900898001e0090001a
:101fd00064004000090807001e0090007000900097
:101fe000eefe07001e0090009a0707000000e000c8
:101ff000040032009e0090000000eb00f00098000a
:10200000150037001e009000100090000080e900cd
:10201000000f78001e009000f0009000212090003a
:102020000000a000a02098008000eb001e007800b7
:10203000290007001e00900070019000a22090006f
:10204000e0ff2f0000806000202198009e007800b3
:102050001e009000020007000080fa000000060049
:102060000600fa0010079800210798001e00900053
:10207000ae009000710098001e00900010089000c3
:102080008000e8001e009000110898001e009000db
:10209000e40040002e0090007c0040009107070003
:1020a0002e009000f01090001e009000ddfe070052
:1020b000000f78002e009000701090009e0f5000ce
:1020c000030032009e0078002e00900070fe070092
:1020d0000080fa00000006000400fa00000f7800fb
:1020e000110798009e0090001e0078008ffd0700e9
:1020f0001e007800060007000000e00002003a0021
:102100001e007800c8fc07000080fa0000000600ee
:102110000400fa00000f78001e00780020189000dc
:102120004200de0061006000100798001e00900071
:102130000000e000020032001000200010079800ac
:102140001e0090000080fa00000006000800fa005f
:102150001007980021079800320798003e01900070
:10216000ae0090001e0090001f000700000f7800d6
:102170001e00e00019003a001e0090002a07070028
:102180001e00900064004000270707001e0090001a
:1021900068004000240707001e009000ae00900079
:1021a000610098009e0090000000eb00f000980095
:1021b0001e009000be009000010898009e00900054
:1021c0000000eb00900898001e01900050e42900e8
:1021d0002171210020099800310998001e00780023
:1021e0000080fa00000006000800fa0010079800be
:1021f00021079800320798000000eb00000f7800dc
:102200001e0090000000e00003003a00b0ff2f0025
:10221000000f78001b0037001e0090001c00070014
:102220000000e00003003200b0ff2f00000f780034
:10223000140037002e009000e10f5000060032001d
:102240002e009000e20f500003003200b0ff2f007c
:10225000000f78000b0037002e009000e10f5000b7
:1022600008003a003e0090000000e0000300350046
:102270003e009000e80f500002003400b0ff2f0035
:10228000000f78001e0078000080fa0000000600b1
:102290000400fa00000f78001e007800200990006a
:1022a000b00990000000eb001007980050e42900ee
:1022b00021712100800f5100818f590002003a00e6
:1022c00010002000100798001e0090000080fa0007
:1022d000000006000600fa00200798002e0090007b
:1022e00052000700100798001e0090000000e00058
:1022f0002d003a00420007000000e00003003a0011
:10230000d0ff2f0010079800270037000080eb0057
:10231000000f7800f2070700000f78002e009000f1
:10232000700090000000e000080032002e009000d5
:10233000f0009000506a8000808f5000030032004f
:10234000a0ff2f00100798000f0037002e0090000c
:10235000d80407002e009000700090000000e000fc
:10236000050032002e00900013ff07002e009000a1
:1023700064004000ac0607002e0190006000b80029
:1023800020099800310998000080eb009e0f100092
:1023900002003a000040da00000000001e00780051
:1023a000d5070700030007001e0090000080fa0018
:1023b000000006000000fa00050007000000e00031
:1023c00001003200910707000080fa0000000600bb
:1023d0000200fa00516a8000606a80000001eb0090
:1023e000020f7800808f50000200320010002000a1
:1023f000000f78001e0078000080fa000000060040
:102400000200fa008d0407008000eb00010f780045
:10241000e10f500002003a0010002000000f780089
:102420001e0078000080fa00000006000400fa0098
:10243000100798000000eb00000f78001e009000cd
:102440000000e00003003a00b0ff2f00000f78000a
:10245000060037001e0090008dff07000000e0001e
:1024600002003a0090ff2f00000f78001e00780055
:102470000080fa00000006000c00fa003007980007
:1024800042079800530798003e009000e7ff0700be
:10249000200798000000eb00100798002e00900025
:1024a0000000e00050003a00d5ff07000000e00007
:1024b00003003a00d0ff2f00200798004a003700a1
:1024c0000080eb00000f780085070700000f780000
:1024d0003e009000f0009000506a8000808f500015
:1024e00008003a003e009000100890008000e800cc
:1024f0003e009000110898000000eb0020079800b3
:10250000230037003e00900060009000e10f500073
:1025100009003a00506a8000e01090003e009000f0
:1025200000089000808f500003003d00a0ff2f00a6
:1025300020079800160037003e00900070009000c1
:102540000000e00004003a00516a80003e00900064
:10255000c3fe07000e0037004e009000de00900022
:10256000e00f5000e08f580003003a000080eb00bd
:1025700020079800060037004e019000de01900011
:102580003e0090001b00070010002000100798007c
:102590008fff07000000e00005003a001e009000d9
:1025a0000000e000020032000040da0000000000fd
:1025b0000080eb009e0f100002003a000040da009d
:1025c000000000001e0078004b07070079ff07009d
:1025d0001e0090000000e00003003200506a8000fe
:1025e000c0189000210798002e0090000080fa008b
:1025f000000006000800fa00100798002207980063
:10260000330798001e00900060009000e20f500019
:102610000f003a00506a8000f01090001e009000f9
:102620007000900070109000808f500005003d00f9
:10263000506a8000f01090001e0090007000900022
:102640001e00070070002000000f78000200370015
:1026500060002000000f78001e0090002e01900006
:10266000be0190009e00780005000700516a8000be
:102670001e00900001fe07000080fa000000060026
:102680000800fa00000f7800110798002207980050
:1026900033079800506a800093fb0700506a80005f
:1026a0002e029000be0290001e0190009e00780055
:1026b000e3fb07000080fa00000006000400fa00b7
:1026c000000f7800110798001e007800f0109000ad
:1026d0001e009000808f5000180034001e0078000b
:1026e000180007000000e000040032009e00900087
:1026f0001e007800f6fc0700100037001e0078006e
:102700009e009000711098001e00780003fe0700e4
:102710000000e000090032001e0078003018900030
:10272000e70f500005003a001e00780030089000c6
:10273000f0009000010f7800e3ff37000080fa00fe
:10274000000006000400fa00000f78001e00780068
:102750002018900061006000100798001e00900093
:102760000000e00002003200100020001007980076
:102770001e0090000080fa00000006000200fa002f
:10278000000f78006011b8001e0078003aff0700c3
:102790000080fa00000006000600fa0020079800fa
:1027a0002e00900021ff0700100798001e009000e7
:1027b0000000e0002c003a0011ff07000000e000dc
:1027c00003003a00d0ff2f001007980026003700c2
:1027d0000080eb00000f7800c1060700000f7800b2
:1027e0002e009000f0009000506a8000808f500012
:1027f00003003200a0ff2f001007980012003700de
:102800002e009000100890008000e9002e0090003b
:10281000110898002e009000100890000000e000c1
:1028200009003c002e009000100890000000e0001d
:1028300003003d000040da00000000000200370005
:102840002e009000dcfd07000080eb009e0f1000c2
:1028500002003a000040da00000000001e0078008c
:10286000a5060700d3fe07001e0090000080fa00b6
:10287000000006000600fa00200798002e009000d5
:102880007008900064005000100798001e0090002f
:102890003000900064005000000f780008003700fe
:1028a0001e009000c4fd07001e007800100798006d
:1028b0001e0078003000900064005000000f780087
:1028c0001e009000e40040002e0090007c004000bc
:1028d000808f5000f2ff3a000080fa0000000600ee
:1028e0000200fa00000f78001e00780030189000f7
:1028f000e70f5000020032000040da000000000044
:102900001e00780020209000610060000000e000c0
:102910000e003a001e00780030089000f000900091
:10292000010f78001e0078009cfc07001e00780054
:102930007afd07000000e000040032001e0078006d
:1029400030189000e70f5000f2ff32000080fa00cc
:10295000000006000200fa00000f78001e00780058
:10296000300890009e0078007bfd07000080fa0090
:10297000000006000800fa001007980021079800e0
:1029800032079800ae0090001e0090000b00070078
:10299000000f78001e00e00005003a003e019000a4
:1029a000ae0090001e00900082010700000f78002a
:1029b0001e0078000080fa00000006000600fa0001
:1029c00010079800210798000000eb00000f780026
:1029d0001e0090000000e00003003a00b0ff2f004e
:1029e000000f7800060037001e0090000700070067
:1029f0000000e00002003200b0ff2f00000f78005e
:102a00001e0078000080fa00000006000400fa00b2
:102a1000000f78001e00780060019000f001900027
:102a20000000eb0010079800c0fb270031a9290027
:102a3000800f5100818f590002003a0010002000e1
:102a4000100798001e0090000080fa0000000600a9
:102a50000600fa00200798002e00900011000700e1
:102a6000000f78001e00e0000b003a001c06070073
:102a7000100798002e0090003b010700000f78001f
:102a80002e0190006000b80060019800710198006c
:102a90001e009000180607001e0078000080fa0053
:102aa000000006000400fa00100798000000eb0088
:102ab000000f78001e0090000000e00003003a00c4
:102ac000b0ff2f00000f7800060037001e009000b6
:102ad000ceff07000000e00002003a0090ff2f0048
:102ae000000f78001e0078000080fa000000060049
:102af0000a00fa0020079800320798004307980060
:102b00002e009000e7ff0700000f78001e00e00095
:102b100009003a00f2050700100798003e019000f6
:102b2000ce0190002e009000ca000700000f780030
:102b30001e009000f00507001e0078000080fa00db
:102b4000000006000600fa00200798002e00900002
:102b5000d4ff0700000f78001e00e00007003a00d5
:102b6000df050700100798002e009000fe00070008
:102b7000000f78001e009000df0507001e0078009f
:102b80000080fa00000006000a00fa002007980002
:102b900031079800420798002e009000c1ff0700ff
:102ba000000f78001e00e00009003a00cc05070085
:102bb000100798004e019000be0090002e0090007b
:102bc00015010700000f78001e009000ca050700dd
:102bd0001e0078000080fa00000006000800fa00dd
:102be00020079800310798002e009000adff0700e5
:102bf000000f78001e00e00009003a00b805070049
:102c0000100798002e00900018010700800078003f
:102c10003e009000010878001e009000b6050700f5
:102c20001e0078000080fa00000006000800fa008c
:102c300020079800310798002e00900099ff0700a8
:102c4000000f78001e00e00008003a00a40507000d
:102c5000100798002e009000110107003e0190001f
:102c60000089be001e009000a30507001e0078002a
:102c70000080fa00000006000200fa0020db2000bd
:102c8000690407000000eb00000f78000700370020
:102c90001e0078004200dd008000780060db20002c
:102ca00000804000600407001e0fe8007000200054
:102cb0009e0f1000f6ff34000080fa0000000600ae
:102cc0000a00fa00806a80006700600040079800f0
:102cd0004e0090000000e00041003a00a06d80002e
:102ce000300798003e0090001000900020079800e8
:102cf000370037003e00900040019000d001900066
:102d0000f0ff2f0001002000800f5100818f59003b
:102d1000080032003e00900040019000d001900079
:102d20007000200001002000800f5100818f5900a9
:102d300002003e000040da00000000003e0090006b
:102d4000d00090004000900068005000e0805800e3
:102d50003e01900040019800510198003e00900013
:102d600040019000d0019000700020000100200080
:102d7000800f5100818f590010003e003e009000ee
:102d80009e0407003e0190003e009000d00090009d
:102d90004000900080007800806a80000080400041
:102da000670060004200dd008000780060db2000ea
:102db00000804000820078004a0407002e00900046
:102dc000300798002e009000100090002007980017
:102dd000be00900020db2000808f5000c5ff3a002d
:102de0004e0090004200dd008000780060db200093
:102df000008f40000b0037001e007800100090008c
:102e0000100798001e009000570007001e00900059
:102e1000200190001e009000b00090001e00900065
:102e2000020001001e0078000a0407000000e00014
:102e3000f1ff32001e007800060407000000e000e9
:102e400002003a000040da00000000000080fa00b2
:102e5000000006000a00fa002007980032079800d8
:102e6000430798000000eb00100798003e01900017
:102e7000ce019000f0ff2f0001002000800f5100d4
:102e8000818f5900050032003e009000ce00900076
:102e9000e00f5000e08f580003003a00b0ff2f0011
:102ea000100798002d0037002e0090002e0007001c
:102eb000100798003e019000ce01900070002000a5
:102ec00001002000800f5100818f590012003e0048
:102ed000be009000806a800000804000670f6000a4
:102ee0001e007800cf80de002e0190004001980087
:102ef000510198002e0190001e0078004200dd0074
:102f00008000780060db20000080400082007800b4
:102f1000f403070011003700806a800001002000e0
:102f2000670160006000b80003002000020070002c
:102f3000838070003e019000ce01900000004100af
:102f4000818049002e0190004001980051019800b5
:102f5000ae00900020db2000e20307001e0090007e
:102f60000080fa00000006000400fa001007980034
:102f70000000eb00000f78001e0090003b000700ef
:102f80000000e000080032001e0190006000b80060
:102f900040019800510198001e009000170407009e
:102fa0001e009000a00307001e0078000080fa00b9
:102fb000000006000800fa0010079800210798009a
:102fc000320798003e019000ae0090001e00900075
:102fd00011000700000f78001e00e0000b003a000f
:102fe0001e009000900307001e0190006000b800d2
:102ff00040019800510198001e019000c0fb27007d
:1030000031a9290060019800710198001e00780024
:103010000080fa00000006000800fa00100798007f
:1030200021079800320798000000eb00000f78009d
:103030002e0090000000e00003003a00b0ff2f00d7
:10304000000f7800060037001e009000ae009000d0
:10305000210098001e009000be00900031009800f2
:103060001e0078000080fa00000006000400fa004c
:10307000000f78001e007800760307008000eb0048
:10308000110798000000e00002003a001000200044
:10309000100798001e0090000080fa000000060053
:1030a0000800fa00300798006000b8001007980088
:1030b000210798003e009000ecff07000000e000b0
:1030c0002a003200806a8000670f60003e00900096
:1030d00040019000d00190001e007800cf80de00fb
:1030e000800f5100818f59000a0036003e00900089
:1030f00040019000d00190001e007800cf80de00db
:1031000000005100818059001007980021079800a5
:10311000160037003e00900040019000d001900062
:103120001e007800cf80de00800f5100818f590093
:103130000c0031003e00900040019000d001900052
:103140001e007800cf80de00000051008180590011
:1031500068004000e08048001007980021079800b0
:10316000020037000040da00000000001e0090005e
:10317000ae0090000080fa00000006000200fa0095
:10318000000f7800c06e800000000100fdff3700d6
:103190001000fa00200798003107980042079800b5
:1031a0005307980064079800750798000000eb002b
:1031b000100798000f0037001e0090004200dd004d
:1031c00080007800a0d12000008040001603070096
:1031d0001e00900080004000e0d920008080400068
:1031e0000000eb00800878001e0090000000e8005e
:1031f000100798001e009000e90f5000eeff340009
:1032000020d42000080307000000eb00306a88008b
:103210000000eb00406a88000000eb00706a880044
:103220000000eb00806a88000000eb00906a8800d4
:103230000000eb00606a88000000eb00506a880024
:103240007e009000c06e88000000eb001007980020
:103250000a0037001e009000000040008000780047
:103260004e00900080804000d0ee2f008008780053
:103270001e0090000000e800100798009e009000db
:103280005e009000808f5000f2ff3900de00900059
:103290004e00900044020700b06a880076fe0700e6
:1032a000be0090002e00900018000700000f78006c
:1032b0001e00e000020032000040da0000000000c2
:1032c00080d52000606a880080d52000bef9070004
:1032d000000f78001e00e000020032000040da001b
:1032e0000000000080d52000506a88006e00900029
:1032f00000000100406a80000000a000406a8800d1
:10330000bc0307000080fa00000006000400fa0079
:10331000000f7800110798001e0090002600200082
:103320008002eb00000278009e01780092002000ed
:10333000e18b210080d5200005f507000080fa0010
:10334000000006000400fa000000eb0010079800df
:10335000680007000000e00003003a00d0ff2f00e3
:1033600010079800110037000080eb00000f780074
:10337000db030700000f7800806a80000000e8008f
:10338000806a88001f0007004dfe07000080eb00e8
:103390009e0f100002003a000040da00000000001a
:1033a0001e007800d4030700030007001e009000f1
:1033b0000080fa00000006000000fa000500070087
:1033c0000000e00001003200900307000080fa00d6
:1033d000000006000200fa00516a8000606a800066
:1033e0000001eb00020f7800808f500002003200d5
:1033f00010002000000f78001e0078000080fa0006
:10340000000006000600fa00506a8000701090006c
:10341000200798002e00900080004000e0d9200096
:1034200000804000100078000000e0002f00320013
:10343000516a8000511890000000e800d0189800f0
:10344000506a800050189000000178002e00900013
:1034500080004000e0d9200000804000100078008b
:10346000800f510021003600516a80000000eb00ff
:10347000d01898002e0090004200dd0080007800f7
:10348000a0d1200000804000000f78001e007800ce
:10349000700207000000e00014003a001e007800ef
:1034a00010009000100090009e0f50000f0032009e
:1034b0002e0090004200dd0080007800a0d12000a6
:1034c000008040009a020700100798001e0190003b
:1034d0002e0090004200dd0080007800a0d1200086
:1034e00000804000820078007e0207000080fa0021
:1034f000000006000200fa00500007008000eb0008
:10350000010f7800e20f500002003a001000200086
:10351000000f78001e0078000080fa00000006000e
:103520000800fa0020079800310798000000eb001f
:1035300010079800280007000000e00003003a0090
:10354000d0ff2f0010079800200037002e009000b9
:103550000000e000090035002e009000e80f500048
:1035600006003c003e0090000000e0000300350033
:103570003e009000e10f400003003a00b0ff2f0032
:1035800010079800110037000080eb00000f780052
:1035900053030700000f78002e0090003e019000ba
:1035a00080004000e0d92000008040000208780040
:1035b0000080eb009e0f100002003a000040da008d
:1035c000000000001e0078004b0307001e00900062
:1035d0000080fa00000006000200fa001700070051
:1035e0008000eb00010f7800e10f500002003a006c
:1035f00010002000000f78001e0078000080fa0004
:10360000000006000000fa00806a80000080fa00d6
:10361000000006000000fa00406a80000080fa0006
:10362000000006000200fa00000f78001e0078007b
:10363000d06e88000080fa00000006000400fa0046
:10364000406a8000610060000004e0000b0032006e
:103650002b0307000000e0000300320020002000e0
:103660001007980002003700100020001007980093
:103670001e009000000f7800020037000000eb00f1
:10368000000f78001e0078000080fa00000006009d
:103690000000fa00506a80000080fa000000060076
:1036a0000000fa00506a8000401090000080fa008c
:1036b000000006000600fa00200798002e00900087
:1036c000100090000080e900100798001e00900094
:1036d000200090000080e900000f7800090037000a
:1036e00081ff2f001e009000130007001e007800cd
:1036f000100798001e007800200090000080e9006c
:10370000000f78001e0090008080e8002e009000de
:10371000808f5000f2ff3a002e009000cd0107008c
:103720000000e00002003a000040da000000000063
:103730000080fa00000006000400fa00000f780084
:10374000110798009e0090001e007800f7f7070010
:103750001e007800060007000000e00002003a00aa
:103760001e00780030f707000080fa000000060015
:103770000400fa00000f78001e0078002018900066
:103780004200de0061006000100798001e009000fb
:103790000000e00002003200100020001007980036
:1037a0001e0090000080fa00000006000400fa00ed
:1037b00010079800406a8000000f7800416a80007e
:1037c0001e00900000807000406a88001e00780093
:1037d0000080fa00000006000400fa0010079800bc
:1037e000406a8000000f78001e0090008080ea0090
:1037f000406a800000806000406a88001e007800f7
:103800000080fa00000006000600fa00000f7800b1
:1038100011079800220798001e00e00009003200fe
:10382000b06e80000000e00002003a00200020009e
:10383000deff0700b06e80000000e800b06e880078
:1038400008003700b06e80000000e900b06e88000c
:10385000b06e80000000e00002003a00200020006e
:10386000ddff0700d06e80000000e00005003200a0
:10387000d36e80002e0190009e0090001e00780004
:10388000030001000080fa00000006000800fa00b2
:103890001007980021079800320798000000eb00fd
:1038a000000f78000b0037002e0090009000780089
:1038b0001e009000010878001e0090000080e800c3
:1038c000100798002e0090000080e8002007980064
:1038d0001e0fe8009e0078003e009000808f500090
:1038e000f1ff39000080fa00000006003600f80001
:1038f000809fbe00829fbe00849fbe00869fbe0048
:103900003400f80000002000a00188000200fa0046
:103910008460a90010002000000f78001000200033
:10392000000f780087fe07000080fa003400f900dd
:103930004f03be004f02be004f01be004f00be004d
:103940003600f900004006000200fa00000f78007f
:1039500030000700401f200001002000f2f40700a3
:10396000fcff37000200fa00000f7800803e2000c4
:1039700001002000ecf40700fcff37000200fa0011
:10398000000f7800c05d200001002000e6f4070071
:10399000fcff37000000fa000421a90004c1a900bf
:1039a00005a1a8004110200091407800f0ccb300a0
:1039b00000c0600001c2b3000140700004e1b70024
:1039c000301f2000100888008460a9009460a800bf
:1039d000510a200091407800f0c8b30000c0600098
:1039e00001c2b30001407000a5e0b70005e1a800e6
:1039f0009680a800e10a20009140780080cfb300b3
:103a000000c060000004a000aee0b7000080fa0033
:103a1000000006000000fa00160020008002eb0003
:103a20004408200083a320006200200021cb210055
:103a3000e0c8200046f30700160020008002eb00db
:103a40004408200003b4200052002000e1cb2100f4
:103a500040cd20003ef307000080fa000000060081
:103a60000000fa000080fa00000006000000fa00e2
:103a7000160020008002eb00440820000393200081
:103a80007200200041ca210080c4200030f30700ea
:103a90000080fa00000006000000fa00db000700ca
:103aa000bcff070005d3210064d32100430620009a
:103ab000828620004103200000802000b4fd070022
:103ac000100020000080fa00000006003400f8001a
:103ad000881f780008002000a80188004f047800a3
:103ae0000000fa000040da00000000000080fa0048
:103af0003400f900004006003400f800881f780008
:103b000008002000a80188004f0478000000fa0097
:103b10000040da00000000000080fa003400f900e4
:103b2000004006003400f800881f780008002000dc
:103b3000a80188004f0478000000fa000040da0075
:103b4000000000000080fa003400f9000040060088
:103b50003400f800881f780008002000a8018800c1
:103b60004f0478000000fa000040da000000000076
:103b70000080fa003400f900004006003400f8002c
:103b8000881f780008002000a80188004f047800f2
:103b90000000fa000040da00000000000080fa0097
:103ba0003400f900004006000400fa00000f78001d
:103bb000110798001e0078000080fa00000006003f
:103bc0000600fa00000f78001107980022079800fd
:103bd0001e007800800078001e0090000108780028
:103be0001e0090000080e800100798009e009000e2
:103bf0000000eb00800878001e0090000080e800c4
:103c0000100798009e0090000080eb00800878006c
:103c10001e0090000080e800100798009e009000b1
:103c200030102000800878001e0090000080e8001e
:103c3000100798009e009000404121008008780005
:103c40001e0090000080e800100798009e00900081
:103c500020212100800878001e0090000080e800ec
:103c6000100798009e0090003031210080087800f5
:103c70001e0090000080e800100798009e00900051
:103c800000012100800878001e0090000080e800fc
:103c9000100798009e009000101121008008780005
:103ca0001e0090000080e800100798009e00900021
:103cb00080802000800878001e0090000080e800ce
:103cc000100798009e0090009090200080087800d7
:103cd0001e0090000080e800100798009e009000f1
:103ce00060602000800878001e0090000080e800de
:103cf000100798009e0090007070200080087800e7
:103d00001e0090000080e800100798009e009000c0
:103d100040402000800878001e0090000080e800ed
:103d2000100798009e0090005050200080087800f6
:103d30001e0090000080e800100798009e00900090
:103d400020202000800878001e0090000080e800fd
:103d5000100798009e009000303020008008780006
:103d60001e0090000080e800100798002e009000d0
:103d7000800078001e009000010878001e0090006e
:103d80000080e800100798009e00900010102000ae
:103d9000800878001e0090000080e800100798005e
:103da0009e0090000000eb00800878001e0090004c
:103db0000080e800100798009e0090000000eb00d3
:103dc000800878001e0090000080e800100798002e
:103dd0009e0090000000eb00800878001e0090001c
:103de0000080e800100798009e0090000000eb00a3
:103df000800878001e0090000080e80010079800fe
:103e00001e0090000080fa00000006000000fa008a
:103e1000330107000080fa00000006000000fa00ed
:103e20000080fa00000006000200fa00000f78008f
:103e30001e0078009e007800110098001e00780097
:103e4000900090001e007800010878000080fa00c1
:103e5000000006000400fa00000f78001e00780041
:103e6000100090009e0f500007003a001e007800de
:103e7000100078009e0f500003003a001000200050
:103e800010079800020037000000eb0010079800b0
:103e90001e0090000080fa00000006000400fa00f6
:103ea000000f7800110798001e0078009000900025
:103eb0001e009000110098001e0090001e0878005f
:103ec0001e009000100090009e00900001087800f5
:103ed0001e0078009e009000110098000080fa00fb
:103ee000000006000400fa00000f78001107980097
:103ef0001e0090009e007800110098001e007800bf
:103f0000900078001e009000010878001e009000cc
:103f1000100078009e009000110098001e007800ac
:103f20009e009000010878000080fa000000060062
:103f30000400fa00100798000000eb00000f780062
:103f40001e0090000000e000100032001e009000f3
:103f5000900090001e009000808f50000b003200f7
:103f60001e00900090009000010f78001e00780065
:103f7000100090009e009000010878001e0078005c
:103f8000900090001e009000110098001e00780024
:103f90000080fa00000006000600fa0010079800f2
:103fa0001e009000900078001e009000808f50004e
:103fb00003003a000000eb00200798000c003700d7
:103fc0001e009000100f78001e007800100078008e
:103fd0009e009000110098001e007800900078006c
:103fe0001e009000010878001e007800200798004d
:103ff0002e0090000080fa00000006000200fa0087
:10400000000f78001e007800900078001e007800f5
:1040100010009000900098001e0078009000900022
:104020001e00780010007800800878000080fa00f8
:10403000000006000800fa002007980031079800e9
:104040000000eb00100798002e00900090009000f8
:10405000010f7800090037002e0090009e0f10001d
:1040600003003a00100020001007980006003700f7
:104070001e00780090009000010f78002e00900044
:104080009e0f1000f4ff3a001e0090000080fa001e
:044090000000060026
:020000040000fa
:10409400480c0000d20000000200000000000000f4
:1040a400000000000000000000000000000000000c
:1040b40000000000000000000000000000000000fc
:1040c40000000000000000000000000000000000ec
:1040d40000000000000000000000000000000000dc
:1040e40000000000000000000000000000000000cc
:1040f40000000000000000000000000000000000bc
:1041040000000000000000000000000000000000ab
:10411400000000000000000000000000000000009b
:10412400000000000000000000000000000000008b
:10413400000000000000000000000000000000007b
:10414400000000000000000000000000000000006b
:10415400000000000000000000000000000000005b
:10416400000000000000000000000000000000004b
:10417400000000000000000000000000000000003b
:10418400000000000000000000000000000000002b
:10419400000000000000000000000000000000001b
:1041a400000000000000000000000000000000000b
:1041b40000000000000800004804000000000000a7
:1041c400d60d000006000000020000000000000000
:1041d400000000001a0d000098000000000000001c
:1041e400b20d0000240000000000000000000000e8
:020000040000fa
:1041f400c1d4200091007800a0d4200001087800e8
:104204009107780026003700801f7800600820009e
:104214001040a0004f007800000006002000f800c5
:104224004200f8008e1f78008c9fbe008a9fbe005b
:10423400889fbe00869fbe00849fbe00829fbe00f2
:10424400809fbe003600f8003200f8004400f800f9
:104254003400f8001202800042a0a800f0ff2f00f2
:1042640000018800600820001040a100a0d42000b4
:10427400c1d4200091007800100078000100e00013
:10428400070032000008e100050032000f08780042
:1042940091077800a0d42000010878001202880059
:1042a4003400f9004400f9003200f9003600f90046
:1042b4004f00be004f01be004f02be004f03be00c0
:1042c4004f04be004f05be004f06be004f077800e6
:1042d4004200f9002000f900004006004200f80006
:1042e40010028000000eb300100288004f00780016
:1042f40000000600100288000000060000002000f4
:1043040042a0af001000200042c0af001000200007
:0c43140042e0af00100020000000060096
:00000001FF
